:1000000009C022C020C01FC01EC01DC01CC01BC014
:100010001AC019C011241FBECFE9CDBF10E0A0E661
:10002000B0E0E0EEF3E002C005900D92AC36B1070F
:10003000D9F720E0ACE6B0E001C01D92AF36B207C0
:10004000E1F7A0D1CBC1DCCF1F920F920FB60F9278
:1000500011240F900FBE0F901F9018958FB58068D8
:100060008FBDB19B19C09FEF96BF8FB580688FBDC4
:10007000E7E9FAE33197F1F700C000008FB58F7719
:100080008FBDFFE92AE733E0F15020403040E1F72F
:1000900000C00000B199E8CF0895B19B10C0C0988E
:1000A0008BE49DE10197F1F700C00000C09A8FE258
:1000B00095E70197F1F700C00000B199F0CF0895DE
:1000C00083B7816083BF8FB583608FBD8FB5806C30
:1000D0008FBD0895FF920F931F93CF93DF9380916D
:1000E0006D00809580936D00B1998EC030E0C0E6C0
:1000F000D0E00FEF10E0FF24FA9487E293E201973B
:10010000F1F700C0000080916E009881981760F4AC
:1001100080E08F5F90916E00E82FF0E0E05AFF4F93
:1001200020812917B0F301C080E08F5F90916D00AE
:100130009923B9F090916E009F3F19F190916E0054
:10014000B801691B7109482F50E04617570734F46E
:1001500090916E00890F80936E0013C0F0926E0034
:1001600010C090916E00992361F090916E008917F4
:1001700030F490916E00981B90936E0002C0109224
:100180006E0080916E00882321F080916E008F3F79
:1001900099F48FB58F778FBD8BE792E90197F1F7CF
:1001A00000C000008FB580688FBD8BE792E9019792
:1001B000F1F700C000003F5F3B3008F1B19BFECF7C
:1001C0009FE52AEE80E0915020408040E1F700C09A
:1001D00000008FB58F778FBDC29880916E0081111E
:1001E00001C03CDF80916E008F3F09F456DF8091A3
:1001F0006C008111C29A8FB580688FBD30E080910C
:100200006E0086BFB19B79CFDF91CF911F910F9187
:10021000FF9008958FB58F778FBDC29888EC8A952F
:10022000F1F7369A3699FECF8FB580688FBD8091F1
:100230006C008111C29A85B1089510926D00809171
:100240006C008111C29AB89A8FB580688FBD809179
:100250006E0086BF86B1836886B9DCDFB19BFECFB6
:100260008FE295E70197F1F700C0000008958FB580
:100270008F778FBDC09AB898C29837988BB7806433
:100280008BBF85B78C7F85BF85B7877E806185BF33
:1002900085B7806285BFF89478948895F8941BBEE2
:1002A00085B78F7D85BF78948BED95E00197F1F749
:1002B00000C00000B199E2CFC0DF0895C09AC19A92
:1002C000BA9AC298C39A399A3D9A3E9A479AF8DEEA
:1002D0008FB58F778FBDC29A87E99AE30197F1F7BF
:1002E00000C00000C298C3DF08958FB58F778FBD1F
:1002F000C09AB898C2988FE295E70197F1F700C0CD
:10030000000084E6B19916C01DC090916C0081E098
:10031000892780936C008111C29AB89A8FB5806842
:100320008FBDEFE2F5E73197F1F700C000000895C7
:100330009EDF0895EBE2F1E03197F1F700C0000095
:10034000815001F7B19BE1CFF3CF64DF8E36B0F47B
:10035000282F9FB59F779FBDE3EEF7E53197F1F723
:1003600000C000009FB590689FBDE3EEF7E53197B0
:10037000F1F700C000002D5F2E3658F38A3508F4DF
:1003800076DF08959BDF59DFC0E0D0E0B19915C05A
:1003900080E090E0B1990BC001968B3F9105E1F0B0
:1003A000EBE2F1E03197F1F700C00000F3CF8A3FB4
:1003B000910590F49ADFB19BFECFC036FAEEDF07CD
:1003C00018F0C3DFC0E0D0E021968BE291E0019706
:1003D000F1F700C00000DACF7DDEEDCFF894FFCF5B
:0C03E0000A19323C4B505A78828C96FF70
:00000001FF
