:1000000009C022C020C01FC01EC01DC01CC01BC014
:100010001AC019C011241FBECFE9CDBF10E0A0E661
:10002000B0E0E4ECF3E002C005900D92AC36B1070D
:10003000D9F720E0ACE6B0E001C01D92AF36B207C0
:10004000E1F78FD1BDC1DCCF1F920F920FB60F9297
:1000500011240F900FBE0F901F9018958FB58068D8
:100060008FBDB19B13C0C09887E99AE30197F1F760
:1000700000C00000C09A9FE92AE783E09150204029
:100080008040E1F700C00000B199EDCF0895B19B29
:1000900010C0C0988BE49DE10197F1F700C000000B
:1000A000C09A8FE295E70197F1F700C00000B1997F
:1000B000F0CF089583B7816083BF8FB583608FBD14
:1000C0008FB5806C8FBD0895CF93DF9390916D00B5
:1000D00081E0911180E080936D00B1998FC070E054
:1000E000A0E6B0E0C0E04FEF50E0DFEF87E293E240
:1000F0000197F1F700C0000080916E009C91981765
:1001000060F48C2F8F5F90916E00E82FF0E0E05A42
:10011000FF4F20812917B0F301C08C2F61E0680FD9
:1001200090916D009923B9F080916E008F3F19F185
:1001300080916E009A01281B3109862F90E082176A
:10014000930734F480916E00680F60936E0013C0C3
:10015000D0936E0010C080916E00882361F0809172
:100160006E00681730F480916E00861B80936E00DD
:1001700002C0C0936E0080916E00882321F08091B0
:100180006E008F3F99F48FB58F778FBD8BE792E923
:100190000197F1F700C000008FB580688FBD8BE735
:1001A00092E90197F1F700C000007F5F7B3008F112
:1001B000B19BFECF9FE52AEE80E091502040804029
:1001C000E1F700C000008FB58F778FBDC298809196
:1001D0006E00811101C042DF80916E008F3F09F4F3
:1001E00056DF80916C008111C29A8FB580688FBDF7
:1001F00005C080916E0086BFB19B78CFDF91CF9113
:1002000008958FB58F778FBDC2988BE291E00197EB
:10021000F1F700C00000369A3699FECF8FB580689E
:100220008FBD80916C008111C29A85B108951092A2
:100230006D0080916C008111C29AB89A8FB5806868
:100240008FBD86B1836886B9DCDFB19BFECF8FE2BC
:1002500095E70197F1F700C0000008958FB58F77FB
:100260008FBDC09AB898C29837988BB780648BBFFF
:1002700085B78C7F85BF85B7877E806185BF85B751
:10028000806285BFF89478948895F8941BBE85B7F2
:100290008F7D85BF7894CBDF0895C19ABA9AC298B2
:1002A000C39A399A3D9A3E9A479A04DF8FB58F7761
:1002B0008FBDC29A87E99AE30197F1F700C0000069
:1002C000C298CCDF08958FB58F778FBDC09AB8984C
:1002D000C2988FE295E70197F1F700C0000084E62D
:1002E000B19919C015C090916C0081E08927809365
:1002F0006C008111C29AB89A8FB580688FBDEFE209
:10030000F5E73197F1F700C000000895A7DF0895E1
:10031000B19BE9CFFBCFEBE2F1E03197F1F700C001
:1003200000008150A9F3DCCF6CDF8738B0F4982F40
:100330002FB52F772FBDE3EEF7E53197F1F700C02A
:1003400000002FB520682FBDE3EEF7E53197F1F7F8
:1003500000C000009D5F973858F3833708F47EDFB4
:1003600008959BDF64DFC0E0D0E000E010E0B199C9
:1003700016C0802F912F06C0EBE2F1E03197F1F724
:1003800000C00000B19905C001968B3F9105A1F70F
:1003900015C08A3F910590F496DFB19BFECFC03621
:1003A000FAEEDF0718F0C0DFC02FD12F2196EBE265
:1003B000F1E03197F1F700C00000D9CF85DEEDCF35
:0403C000F894FFCFDF
:0C03C4000A19323C4B505A78828C96FF8C
:00000001FF
