:1000000009C022C020C01FC01EC01DC01CC01BC014
:100010001AC019C011241FBECFE9CDBF10E0A0E661
:10002000B0E0E6E3F3E002C005900D92AC36B10714
:10003000D9F720E0ACE6B0E001C01D92AF36B207C0
:10004000E1F711D176C1DCCF1F920F920FB60F925C
:1000500011240F900FBE0F901F9018958FB58F73BE
:100060008FBDC09AC298379890E480E39BBF85BF4C
:1000700078948895F8941BBE15BE7894EBEDF5E066
:100080003197F1F700C00000B199F0CF80916C007A
:100090008111C29A80916E0086BF86B1836886B94D
:1000A000369AB19BFECF8FB5806C8FBD8FE295E7FE
:1000B0000197F1F700C00000089580916D008095D0
:1000C00080936D0020E04FEF50E03AEFB1999FC070
:1000D00087E293E20197F1F700C0000090916E0073
:1000E00080E0E82FF0E0E05AFF4F60818F5F6917F2
:1000F000C0F360916D00662379F09A3FC0F4E82F59
:10010000F0E0BA01691B7109E617F70714F4890FCB
:1001100009C030936E000BC0992349F0891728F469
:10012000981B892F80936E0002C010926E00809100
:100130006E008150893F98F08FB58F738FBD8BE72C
:1001400092E90197F1F700C000008FB5806C8FBD78
:100150008BE792E90197F1F700C000002F5F2B3089
:1001600008F451C0B19BFECF9FE52AEE80E091508C
:1001700020408040E1F700C000008FB58F738FBD35
:10018000C29880916E00882329F080916E008A3F8A
:10019000D0F01FC036BFB19BF8CF8FB5806C8FBD3C
:1001A00087E99AE30197F1F700C000008FB58F73DC
:1001B0008FBD9FE92AE783E0915020408040E1F71E
:1001C00000C00000E8CF80916C008823C1F0C29A83
:1001D00016C036BFB19BF7CF8FB5806C8FBD8BE457
:1001E0009DE10197F1F700C000008FB58F738FBDBF
:1001F0008FE295E70197F1F700C00000EBCF8FB5D4
:10020000806C8FBD20E080916E0086BF5FCF089527
:100210008FB58F738FBDC2988FE295E70197F1F785
:1002200000C0000085E6815049F0B19B07C0EBE2B9
:10023000F1E03197F1F700C00000F5CFB19912C09D
:1002400090916C0081E0892780936C008111C29AA3
:100250008FB5806C8FBD8FE295E70197F1F700C0F5
:1002600000000895FBCE82E687B9479A81E083BFFC
:1002700083E08FBD8AE088BB85E087BBC29A87E9AF
:100280009AE30197F1F700C00000C298E7DEC0E0F2
:10029000D0E0B19915C080E090E00AC001968B3F94
:1002A000910561F0EBE2F1E03197F1F700C0000059
:1002B000B19BF4CF8A3F910579F0AADFB19BFECFC5
:1002C000C83E93E0D90769F58FB58F738FBDF8EC01
:1002D000FA95F1F7369A02C0F0DEF0CF3699FECFEC
:1002E00085B19FB5906C9FBD833CC8F4982F2FB506
:1002F0002F732FBDE7E9FAE33197F1F700C0000053
:100300002FB5206C2FBDE7E9FAE33197F1F700C074
:1003100000009D5F933C58F3843B08F49FDEC0E0EF
:10032000D0E021968BE291E00197F1F700C0000048
:06033000B0CFF894FFCFEE
:0C0336000A19323C4B505A78828C96FA1F
:00000001FF
